S01300006763326B5F7063627878782E73726563AE
S315000000006879FF1F199F0000B99D0000159F000029
S31500000010159F0000159F0000159F0000159F00000A
S31500000020000000000000000000000000159F000016
S31500000030159F000000000000159F0000159F00009E
S31500000040959000003D8C000091850000ED85000034
S3150000005089860000FD86000091850000ED85000080
S3150000006089860000FD860000A1500000C9500000EE
S3150000007001510000255100008D95000019950000E2
S31500000080F58B0000000000000000000000000000EA
S31500000090000000000000000000000000000000005A
S315000000A0000000000000000000000000000000004A
S315000000B0000000000000000000000000000000003A
S315000000C0000000000000000000000000000000002A
S31500000400F1FFFFFFFBFDFFFFFCFFFFFFFFFFFFFF0D
S31500000410FCFFFFFFFFFFFFFFFCFFFF00FFFFFF00EA
S31500000420FCFF0F20FFFF0F20FCFF7F40FFFF7F40F8
S31500000430FCFF0D40FFFF0D40FFFFFFFFFFFFFFFF2B
S31500000440FFFFFFFFFFFFFFFFFFFFFFFFFFFFFFFFB6
S31500000450FFFFFFFFFFFFFFFFFFFFFFFFFFFFFFFFA6
S31500000460FFFFFFFFFFFFFFFFFFFFFFFFFFFFFFFF96
S31500000470FFFFFFFFFFFFFFFFFFFFFFFFFFFFFFFF86
S31500000480FFFFFFFFFFFFFFFFFFFFFFFFFFFFFFFF76
S31500000490FFFFFFFFFFFFFFFFFFFFFFFFFFFFFFFF66
S315000004A0FFFFFFFFFFFFFFFFFFFFFFFFFFFFFFFF56
S315000004B0FFFFFFFFFFFFFFFFFFFFFFFFFFFFFFFF46
S315000004C0FFFFFFFFFFFFFFFFFFFFFFFFFFFFFFFF36
S315000004D0FFFFFFFFFFFFFFFFFFFFFFFFFFFFFFFF26
S315000004E0FFFFFFFFFFFFFFFFFFFFFFFFFFFFFFFF16
S315000004F0FFFFFFFFFFFFFFFFFFFFFFFFFFFFFFFF06
S3150000050010B5054C237833B9044B13B10448AFF347
S3150000051000800123237010BDF00AFE1F00000000BA
S31500000520D0ED000008B5034B1BB103490348AFF3F8
S31500000530008008BD00000000F40AFE1FD0ED000098
S3150000054000220272012101604260704741727047C9
S3150000055081727047007A00F00300032814BF002060
S315000005600120704738B505460C46FFF7F3FF40B14A
S315000005702B68A34204D86B68A34202D2002000E095
S31500000580002038BD006870470160704740687047BA
S315000005904160704710B504460B46417A994204D033
S315000005A0817A99420AD0002010BD1146FFF7ECFF70
S315000005B0237A43F0010323720120F5E71146FFF782
S315000005C0E7FF237A43F0020323720120ECE7884217
S315000005D00AD390420AD810F07F0F09D0013010F0EC
S315000005E07F0F07D101207047002070470020704719
S315000005F001207047002070472DE9F04704460D465C
S3150000060016469946FFF7A6FF824670B3D4F80080D7
S31500000610324629464046FFF7DAFF48B9089A494666
S315000006204046FFF7D4FF18B9237A43F00403237238
S315000006306768324629463846FFF7C9FF48B9089A1F
S3150000064049463846FFF7C3FF18B9237A43F0080333
S315000006502372B84503D3237A43F010032372237A17
S3150000066013F01C0F01D04FF0000A5046BDE8F0878A
S3150000067000B583B00B460092FFF7BEFF03B05DF8EE
S3150000068004FB10B50446FFF765FF28B1237A13F083
S315000006901C0F0CBF0120002010BD037A13F0140FAD
S315000006A001D14068704700687047002303727047A5
S315000006B00A6803689A4213D310B44468A24207D961
S315000006C04A68934206D843689A4207D9002002E056
S315000006D0012000E000205DF8044B70470120FAE796
S315000006E04A68934204D843689A4203D90020704767
S315000006F000207047012070471F2802DD203840B2D5
S3150000070070470020704701600022826042600273D9
S31500000710704708B5006800F5167002F0F3FA08BDD8
S315000007202DE9F04107460C4616461D469DF81880F1
S3150000073008E038684346F2B2E1B200F5167002F0FE
S315000007409FFA0134AC42F4D9BDE8F08110B582B00D
S3150000075000240094FFF7E4FF02B010BDF8B5074689
S315000007600E4614461D4608E038680023E2B2F1B290
S3150000077000F5167002F084FA0134AC42F4D9F8BDE3
S315000007802DE9F04104460F4616461D46DDF8188051
S31500000790FFF7DCFF2B46424639462046FFF7D6FFD9
S315000007A04346324639462046FFF7D8FF434632468F
S315000007B029462046FFF7D2FFBDE8F08100B583B099
S315000007C03F2300937F2300221146FFF7D9FF03B092
S315000007D05DF804FB416082607047FFFF2DE9F84336
S315000007E006460846FFF788FF00EB800900EB490044
S315000007F01B4B03EB000999F80A80002721E03068BB
S315000008007168B2683A4421440123D2B2C9B200F5F4
S31500000810167002F035FA6D080134444510D219F805
S3150000082007302B42EBD030687168B2683A442144F5
S315000008300023D2B2C9B200F5167002F021FAEAE737
S315000008400137082F02D880250024E6E77368434461
S3150000085073607F2B01D97F237360BDE8F88300BFE7
S3150000086020DF000008B50846FFF746FF00EB8003CF
S3150000087000EB4300014B1844807A08BD20DF0000DE
S31500000880F8B507460C461646002505E032463846BA
S31500000890FFF7E8FF0544013494F900100029F5D16B
S315000008A02846F8BD70B506460C46154604E02A46AD
S315000008B03046FFF793FF013494F900100029F6D172
S315000008C070BD70B504460D461646FFF7D9FF10F009
S315000008D0800F05D0324629462046FFF7E3FF70BD5C
S315000008E0C3B2C3F18003A26859082046FFF772FF1E
S315000008F0F0E708B5027BFFF7E4FF08BD2DE9F04FEE
S3150000090083B081460F46019200939DF830A00124E2
S315000009104FF00008C3462AE00123D9F800009DF8ED
S315000009200020F1B200F5167002F0AAF90136640053
S3150000093014F0FF0403D03B79013BAB4202D108F12E
S315000009400108012401353B79AB420BD9BAF1000FFE
S31500000950E2D13B6813F80830234201D10123DCE7DA
S315000009600023DAE7009B013300930BF1010B7B793F
S315000009705B4502D9019E0025E5E703B0BDE8F08F8F
S3150000098010B582B000240094FFF7B8FF02B010BD86
S3150000099018B9074B01221A707047012803D0044B7F
S315000009A003221A707047024B02221A70704700BF6A
S315000009B00C0BFE1F0160704730B587B00446124825
S315000009C0002505702068114D009500F62C7002F088
S315000009D0B1FC02A801F00EFB02E0206802F022FF43
S315000009E0094B1B783BB902A801F010FBB0F5FA7F62
S315000009F071F10003F1D3044B1878C0B2012814BF7B
S31500000A000020012007B030BD0C0BFE1F910900002D
S31500000A1030B587B004461248002505702068114D90
S31500000A20009500F62C7002F04EFC02A801F0E2FAE6
S31500000A3002E0206802F0F6FE094B1B783BB902A8DB
S31500000A4001F0E4FAB0F5FA7F71F10003F1D3044B3B
S31500000A501878C0B2022814BF0020012007B030BDAC
S31500000A600C0BFE1F910900004B68B3F5803F04D9BB
S31500000A70F1398B4203D801207047002070470020CF
S31500000A80704710B50C46FFF7EFFF00B910BD61685F
S31500000A900022A1F57F41FF394FF4803002F0B0FE0D
S31500000AA02388834214BF00200120EFE710B50446D7
S31500000AB01149FFF7E6FF10B10F4B636010BD0F49F8
S31500000AC02046FFF7DEFF58B9A368B3F5801FF5D1BE
S31500000AD00B492046FFF7D5FF28B1094B6360EDE7C8
S31500000AE0064B6360EAE707492046FFF7CAFF00287E
S31500000AF0E4D0044B6360E1E7F07F0700F0FF0700F6
S31500000B00F07F0F00F0FF0F0010B50446FFF7CEFF91
S31500000B10207010BD10B504468160FFF7F5FF204632
S31500000B2010BDFFFF03780BB9014870474068704756
S31500000B30F07F07000078704701607047B1F5801FAD
S31500000B402CBF002001207047B1F5803F07D3B1F5D7
S31500000B50801F09D221F4FF4020F07F00704721F466
S31500000B60FF5020F01F0070474FF480107047B1F51A
S31500000B70803F02D34FF4004070474FF40050704757
S31500000B80074B99420AD901F13F4000F5700020F069
S31500000B907F0000F1804000F58010704701487047E3
S31500000BA0FFFF0F400000104038B504460D46FFF722
S31500000BB0C5FF20B129462046FFF7C6FF38BD2946A6
S31500000BC02046FFF7DDFFF9E738B504460D46FFF787
S31500000BD0B5FF20B129462046FFF7C9FF38BD802062
S31500000BE0FCE7FFFF38B504460C4B0120187020685F
S31500000BF00B4B043002F0D9FD054620B1284638BD1E
S31500000C00206802F00FFE054B1B78002BF8D1054B30
S31500000C101B78002BF2D10125F0E700BFFC0CFE1F6C
S31500000C20A11E0000FD0CFE1F70B505460E461446BB
S31500000C30FFF784FF40B128682246314600F582500E
S31500000C40103001F06DFB70BD620092B2314628464D
S31500000C50FFF7C8FFF7E7FFFF30B583B004460D4640
S31500000C6019460E4B0120187020680D4B0093134651
S31500000C702A46043002F079FD054628B1284603B01D
S31500000C8030BD206802F0CEFD044B1B78002BF8D156
S31500000C90044B1B78002BF1D10125EFE7FE0CFE1F5C
S31500000CA0BD1E0000FF0CFE1FF8B505460E46174692
S31500000CB01C461946FFF742FF48B1286823463A46C4
S31500000CC0314600F58250103001F03EFBF8BD234658
S31500000CD03A4631462846FFF7BFFFF7E770B590B0B2
S31500000CE006464FF400720F49FFF77CFF10B1002053
S31500000CF010B070BD4022FF2168460AF011F9094D77
S31500000D000024B4F5007F09D22B46402269463046BE
S31500000D10FFF7A2FF20B940350134F2E70120E7E7EB
S31500000D200020E5E700001040094B1A68094B1B68D4
S31500000D309B1ADBB2012B08D0074B98540132044BA7
S31500000D401A60D2B21A60012070470020704700BFB7
S31500000D50D00CFE1FD40CFE1FD00BFE1F38B5054667
S31500000D600E4B1B680F2B05D80D4A22F813100133C2
S31500000D700A4A13600B4B1B680B4A12689B1AFF3317
S31500000D80DBB20C468B4206D21C4604E015F8010B7A
S31500000D90FFF7CAFF013C002CF8D138BDF80CFE1F46
S31500000DA0D80CFE1FD40CFE1FD00CFE1F074B1A6872
S31500000DB0074B1B689A4207D0064AD05C0133044AA7
S31500000DC01360DBB21360704700207047D00CFE1F23
S31500000DD0D40CFE1FD00BFE1F38B505460C4604E0AA
S31500000DE0FFF7E4FF05F8010B013C2CB1034B1A6831
S31500000DF0034B1B689A42F3D1002038BDD00CFE1F6E
S31500000E00D40CFE1F10B5FFF7D1FF0446FFF7CEFF47
S31500000E1044EA0024FFF7CAFF44EA0044FFF7C6FF8E
S31500000E2044EA006010BDFFFF024B1A68024B1A60CD
S31500000E30704700BFD00CFE1FD40CFE1F2DE9F04FEB
S31500000E4083B004460E469346019300F1140A5046B9
S31500000E50FFF776FB04F120094846FFF771FB04F122
S31500000E602C084046FFF76CFB04F138073846FFF7BD
S31500000E7067FB002584F8445084F8505084F851509C
S31500000E802660C4F804B0019BA3602573174906F5D4
S31500000E90CF6001F033F925611B215046FFF756FB61
S31500000EA01C215046FFF754FB1D214846FFF74EFB19
S31500000EB01E214846FFF74CFB1F214046FFF746FB25
S31500000EC020214046FFF744FB21213846FFF73EFB31
S31500000ED022213846FFF73CFB0C9BA3640D9B636500
S31500000EE00E9BE364204603B0BDE8F08F5D0D000065
S31500000EF038B50D46144600222146284602F080FCED
S31500000F002855C0F30F20631CE854A01C38BDFFFF12
S31500000F1008B500680722034900F5CF6001F0CEF856
S31500000F2008BD00BF64E3000000B583B084468E466A
S31500000F30104B93E803000090ADF80410090C8DF8EF
S31500000F4006108DF802E08DF80320130A8DF80430A0
S31500000F50130C8DF80530120E8DF80620DCF8000013
S31500000F600722694600F5CF6001F0A8F803B05DF8E6
S31500000F7004FB00BF54E3000010B5A4B00446902261
S31500000F80FF21684609F0CCFF0F238DF800308DF85D
S31500000F90013001238DF814301C238DF81530E06CD8
S31500000FA0FFF7C0FD03888DF81A3003881B0A8DF8F9
S31500000FB01B303C2269462046FFF79AFFFFF734FFB5
S31500000FC020683E22694600F5CF6001F077F824B02C
S31500000FD010BD10B5A4B004469022FF21684609F062
S31500000FE09FFF0F238DF800308DF8013090238DF888
S31500000FF0063033238DF8073000238DF808308DF83E
S3150000100009303C2269462046FFF772FFFFF70CFFC6
S3150000101020683E22694600F5CF6001F04FF824B003
S3150000102010BD884203D3904203D9002070470020A8
S3150000103070470120704770B5A0B00546FFF7B6FEB1
S315000010400446431EDBB21F2B1DD8FFF7AFFEFFF78A
S31500001050ADFEFFF7D7FE06462318B3F5802F1BD843
S31500001060214610A8FFF7B8FE234610AA3146A86C01
S31500001070FFF7A2FC23466A463146A86CFFF7C8FC78
S315000010804FF0000C12E002460E212846FFF74CFFF7
S31500001090FFF7CAFE20B070BD02460F212846FFF7B3
S315000010A043FFFFF7C1FEF5E70CF1010C644514D9C7
S315000010B020AB03EB0C0E1EF8402C1EF8803C9A4227
S315000010C0F2D0B6B246EA024242EA0362102128464C
S315000010D0FFF72AFFFFF7A8FEDCE72846FFF718FF11
S315000010E0FFF7A2FED6E7FFFF10B5A4B00446FFF750
S315000010F089FE0146114B98421AD80F238DF800300D
S315000011008DF801303A230DF10202A06CFFF780FC46
S315000011103C2269462046FFF7EBFE20683E226946E0
S3150000112000F5CF6000F0CAFFFFF77EFE24B010BDC9
S31500001130024602212046FFF7F7FEF5E7C5FF03004A
S3150000114030B5A5B00446FFF75DFE0546626D3A3A36
S315000011500021FFF766FF58B9164A17492846FFF7D8
S3150000116060FF28B9154A16492846FFF75AFFD0B13D
S315000011700F238DF800308DF801303A2229460DF103
S31500001180020009F0B3FE3C2269462046FFF7B0FE96
S3150000119020683E22694600F5CF6000F08FFFFFF71A
S315000011A043FE25B030BD2A4602212046FFF7BCFE8D
S315000011B0F5E700BFC67F104000001040C6FF0320C1
S315000011C00000FE1F70B50D461446012600E0013CE6
S315000011D05CB1084B1A68084B1B689A4205D0FFF7AA
S315000011E0E5FDA842F3D00026F1E704B1002630461B
S315000011F070BD00BFD00CFE1FD40CFE1F08B5A1F1B8
S315000012001703032B17D8DFE803F002070C1111466A
S315000012101430FFF7A7F908BD11462030FFF7A2F9F1
S31500001220F9E711462C30FFF79DF9F4E711463830FF
S31500001230FFF798F9EFE70020EDE72DE9F8430446BC
S3150000124000F114052846FFF785F918B90025284648
S31500001250BDE8F88304F120063046FFF77BF9002845
S31500001260F4D004F12C073846FFF774F90028EDD0C6
S3150000127038342046FFF76EF90028E7D02846FFF7F6
S3150000128000FA08B90025E2E73046FFF7FAF9002828
S31500001290F8D03846FFF7F5F90028F3D02046FFF7D7
S315000012A0F0F981460028EDD031462846FFF700FACE
S315000012B008B10025CBE739462846FFF7F9F900289B
S315000012C0F7D121462846FFF7F3F980460028F0D1EA
S315000012D039463046FFF7ECF908B14546B7E72146EF
S315000012E03046FFF7E5F905460028F6D1214638468F
S315000012F0FFF7DEF90028AAD14D46A8E7884204D3B5
S315000013001144814203D90120704700207047002014
S315000013107047F8B504460D4616461F46FFF7EEFF22
S3150000132028B1E019324629460138FFF7E7FFF8BD34
S315000013302DE9F04780460F4616461C46364B1D786B
S31500001340ADB1364B1B68A34204D803F18002A2421A
S3150000135000D966B9304A0021117080223049D8F888
S315000013600800FFF7A1FC002850D1002E51D0002C18
S315000013704ED0294B1B786BB104F07F04B14606EBC7
S31500001380040ABAF17F0F0ED90AF07F09A6EB090904
S31500001390012509E024F07F01204B196080222048B6
S315000013A009F0A4FDE8E700254A4639461C482044D2
S315000013B009F09CFD4F441DB90125174B1D7028E00F
S315000013C0164B1B6880221649D8F80800FFF76CFCFC
S315000013D030B9BAF1800A07D10F4B00221A7018E013
S315000013E000250D4B1D7014E00C4B196880311960F7
S315000013F00B4C8022204609F079FD5246394620469C
S3150000140009F074FD044B01221A7002E0002500E089
S3150000141001252846BDE8F0870E0BFE1F100BFE1FA8
S31500001420140BFE1F08B51739032913D8DFE801F09E
S3150000143002060A0E1430FFF7A5F808BD2030FFF7A4
S31500001440A1F8FAE72C30FFF79DF8F6E73830FFF7FA
S3150000145099F8F2E74FF48030EFE708B5173903291A
S3150000146017D8DFE801F002070C111430FFF78EF8E9
S315000014700F3808BD2030FFF789F80F38F9E72C3010
S31500001480FFF784F80F38F4E73830FFF77FF80F38A6
S31500001490EFE7406DA0F500401038EAE710B5946814
S315000014A0FFF7DBFFC009B0EBD41F0CBF0120002003
S315000014B010BDF8B504460E4691688068FFF774FBC8
S315000014C00546A76831462046FFF7C7FF014638465E
S315000014D0FFF76AFB854214BF00200120F8BD2DE905
S315000014E0F04784B005460E4614469946FFF7D6FFE8
S315000014F08046224631462846FFF7DBFF8246B9F191
S31500001500000F02D1B8F1000F3DD0A7680197314610
S315000015102846FFF787FF3F1A0137B8F1000F3CD086
S31500001520A389ADF80030E389ADF802302369029350
S31500001530237D8DF80C30637D8DF80D30A37D8DF8FD
S315000015400E30E37D8DF80F30B8F1000F05D1BAF1FA
S31500001550000F02D1B9F1000F2ED031462846FFF711
S315000015607CFF0346102269462846FFF7E1FEA8B332
S3150000157000231A4619462846FFF7DAFE80B30120F3
S3150000158004B0BDE8F08700231A4619462846FFF73F
S31500001590CFFE0028B9D10520F2E731462846FFF7ED
S315000015A041FF0022394602F02BF9ADF80000A3896D
S315000015B08342B8D00220E3E7AC6831462846FFF7FD
S315000015C04CFF01462046FFF7EFFA0146012220466E
S315000015D0FFF72AFB0028C0D00420D1E70520CFE77B
S315000015E00520CDE72DE9F04782B09DF82C800C460A
S315000015F000293ED00646154699465C4B1B788B4221
S315000016003DD15B4B1B78002B54D05A4BD3F800A02E
S31500001610594B1F683A4651462846FFF76FFE002889
S3150000162066D00A9B3A4651462846FFF772FE0028C6
S3150000163076D15744A7EB05082B461FFA88F2494690
S315000016403046FFF775FE00285FD00023484A137026
S31500001650484A1168484A12680193EF1B0A9B1F44C7
S31500001660009709EB08030A4421463046FFF7BAFF04
S3150000167002E03E4B1970084602B0BDE8F0873B4BCE
S315000016801970FFF7CFFE3B4B186021463046FFF737
S31500001690C9FE3A4B1860364B00221A70172C04D03C
S315000016A0354B4FF400421A60ABE7334B4FF4005210
S315000016B01A60A6E72946B068FFF776FA2D4F38601C
S315000016C02946B068FFF780FA2B4B1860012239686B
S315000016D0B068FFF7A9FA18B9254B01221A7094E7EA
S315000016E021463046FFF79EFE244B18600420C3E7D0
S315000016F000231F4A137001930A9B00934B462A4608
S3150000170021463046FFF76EFFB6E721463046FFF723
S3150000171089FE1A4B1860164B00221A700520ABE79B
S315000017202B460A9A92B249463046FFF701FE68B147
S315000017300A9B1D44013D114B1B68AB4211D2B8F107
S31500001740000F10D10D4B1D60002095E72146304655
S31500001750FFF768FE094B1860054B00221A7005203A
S315000017608AE7002088E7002086E700BF0007FE1F03
S31500001770940BFE1F0407FE1F0807FE1F0C07FE1F23
S3150000178070B5A6B004460D4602AE01693046FFF7B5
S3150000179023FBFFF749FB216900220239304602F09C
S315000017A02FF82369023BF35A83422FD1062D35D0F9
S315000017B078D3A5F11703DBB2032B75D804F1140017
S315000017C0FEF7E4FE7F38172D3DD0029AB2F1FF3FB7
S315000017D049D029462046FFF711FD00284ED00026A5
S315000017E00196039B009304AB029A29462046FFF715
S315000017F0F9FE02462D4B1E70002A49D0012A4CD014
S3150000180005212046FFF790FB012005E00246032153
S315000018102046FFF789FB012026B070BDFFF704FBC9
S31500001820206802A900F5147000F056FD20B9204684
S31500001830FFF76EFB0120EFE7002204212046FFF7A9
S3150000184073FB0120E8E7029A8242BED10126019687
S31500001850039B009304AB29462046FFF7C3FE0246CE
S31500001860124B1E70C8E7114E337802AA294620464D
S31500001870FFF735FE024600233370BDE7029A0221C8
S315000018802046FFF751FB094B00221A700120C3E7DF
S315000018902046FFF73DFB0020BEE72046FFF738FB5A
S315000018A00120B9E70120B7E70120B5E70D0BFE1FC0
S315000018B000B583B040680091232336220249FFF722
S315000018C01DF803B05DF804FB6CE3000010B5044698
S315000018D04068FEF71EFF6068FEF770FF02220521D2
S315000018E06068FEF777FF00220B496068FEF7E9FFA4
S315000018F07F230F2200216068FEF728FF23230222A0
S3150000190006496068FFF73CF820235C2204496068BA
S31500001910FFF736F810BD00BF40E300007CE300008F
S3150000192074E3000030B583B004460D46009167238A
S315000019302F2222214068FEF7F3FE00956523302210
S3150000194022216068FEF7ECFE03B030BDF0B5A7B00B
S3150000195004460D4690F844300BB9012929D16B1E77
S31500001960232B00F2BA81DFE813F02F008D00B801B7
S31500001970B801B801B700B801B801B8018300B801D1
S31500001980B801B8018800B801C000A700B801AE01CF
S31500001990B301B801B801C500C500C500C500F10016
S315000019A0F100210121014B014B01740174019D01DC
S315000019B06D00FFF739FA2A4612212046FFF7B4FADE
S315000019C00126304627B0F0BD052200212046FFF74C
S315000019D0F9FB064668B3C54B93E803000290ADF8E1
S315000019E00C10090C8DF80E1003238DF80B30012313
S315000019F08DF80C301C238DF80D30636DB3F5801F08
S31500001A0013D0FFF711FA2068072202A900F5CF606C
S31500001A1000F054FB2046FFF759FF00212046FFF750
S31500001A2081FF012384F84430CBE701238DF80E3083
S31500001A30E7E7FFF7F9F9002201212046FFF774FADC
S31500001A400126BEE7E06CFFF75FF884F8500030B17E
S31500001A502046FFF75DFAFFF7E7F90126B1E7002216
S31500001A6014212046FFF760FA012384F85130F2E78B
S31500001A702046FFF781FA0126A3E72046FFF7A9FAD9
S31500001A8001269EE7052200212046FFF79BFB68B151
S31500001A902046FFF73DFA01212046FFF743FF0023CA
S31500001AA084F84430FFF7C0F901268AE700220121B5
S31500001AB02046FFF739FAF5E72046FFF729FABFF384
S31500001AC04F8F8B49CA6802F4E0628A4B1343CB609E
S31500001AD0BFF34F8F00BFFDE73E232361FFF7A4F955
S31500001AE02046FFF715FA00266BE72046FFF728FB8E
S31500001AF0012666E7FFF786F90746FFF795F92046C0
S31500001B00FFF79BFB0646A0B13A4629462046FFF75B
S31500001B1075FBA8B18A2323610026019600963346F9
S31500001B20324631462046FFF75DFD2046FFF7F0F9C5
S31500001B3047E73A460C212046FFF7F6F9012640E72B
S31500001B403A4602212046FFF7EFF93AE7FFF75AF93E
S31500001B500246B0F5803F17D304F1140729463846EC
S31500001B60FEF718FD3846FEF7F5FC064638B1626DFD
S31500001B70013A4FF480313846FEF77AFD50B12046DF
S31500001B80FFF7C6F901261CE713212046FFF7CCF91B
S31500001B90012616E73846FEF788FD3846FEF77DFD36
S31500001BA0024608212046FFF7BFF90AE704F120079D
S31500001BB0FFF728F9024629463846FEF7EBFC384679
S31500001BC0FEF7C8FC064650B14B4B0093A3F5004305
S31500001BD0626D4FF4F0213846FEF70EFD20B1204627
S31500001BE0FFF796F90126ECE63846FEF75EFD384625
S31500001BF0FEF753FD024609212046FFF795F9E0E678
S31500001C0004F12C07FFF7FEF8024629463846FEF790
S31500001C10C1FC3846FEF79EFC064648B14FF48023C9
S31500001C2000930023344A35493846FEF7E5FC20B1D7
S31500001C302046FFF76DF90126C3E63846FEF735FD67
S31500001C403846FEF72AFD02460A212046FFF76CF9C0
S31500001C50B7E604F13807FFF7D5F8024629463846B5
S31500001C60FEF798FC3846FEF775FC064648B14FF479
S31500001C70802300930023204A20493846FEF7BCFC07
S31500001C8020B12046FFF744F901269AE63846FEF7CA
S31500001C900CFD3846FEF701FD02460B212046FFF7F4
S31500001CA043F98EE6A068FFF719F830B12046FFF732
S31500001CB02FF9FFF7B9F8012683E600220D21204609
S31500001CC0FFF732F9F5E72046FFF70EFA012678E628
S31500001CD02046FFF7B0F9012673E62A46072120467B
S31500001CE0FFF722F9FFF7A0F801266AE65CE3000099
S31500001CF000ED00E00400FA050080104000001040EE
S31500001D0038B50446006800F5CF6000F083FA012874
S31500001D1015D05A4B1B78D3B9594B1B78F3B9237B93
S31500001D2093B3012B78D094F85030002B40F09C8070
S31500001D3094F85130002B40F09C80002038BD0121E2
S31500001D402046FFF7EFFD002384F84430E1E74B4BD4
S31500001D5000221A704B4800F04DF9DDE74A4800F0C2
S31500001D6055F940F2F513984271F10003D7D3474D68
S31500001D7029782046FFF79CFD2B7883F001032B7012
S31500001D80414800F037F9CAE7414B1B68414A1268DF
S31500001D909B1A13F0FE0F26D0FFF708F80028C2D1D1
S31500001DA0FFF704F83C4D2870364800F023F92978EF
S31500001DB02046FFF7CBFD80B1314B1B78002BB2D10B
S31500001DC001252F4B1D70304800F014F92F4B1D7064
S31500001DD029462046FFF76CFDA5E7012323732F480C
S31500001DE000F008F9E8E7274800F010F940F2F5138B
S31500001DF0984271F1000396D3214B1B7813B1204B07
S31500001E0000221A701F4800F0F5F801211F4B1970C7
S31500001E102046FFF74DFD86E71D4B1B681D4A1268DD
S31500001E209B1ADBB2226993420FD31B4B19782046CB
S31500001E30FFF7A6FC18B9194800F0DCF873E7002391
S31500001E402373104800F0D6F8F5E7144800F0DEF8E2
S31500001E5040F2F513984271F10003FFF464AF0023DA
S31500001E602373FEF7E1FF5EE7002384F8503001207C
S31500001E7064E7002384F8513002205FE71007FE1F55
S31500001E80A90BFE1F980BFE1FC00BFE1F1107FE1F9E
S31500001E90D00CFE1FD40CFE1FA80BFE1FB00BFE1F9E
S31500001EA0022814BF00200120024B1870024B0022AA
S31500001EB01A707047FD0CFE1FFC0CFE1FB0FA80F076
S31500001EC04009034B1870034B00221A70704700BF7D
S31500001ED0FF0CFE1FFE0CFE1F10B5044601609DF8A8
S31500001EE008100176427683760023C376083000F028
S31500001EF081F8204610BD38B5044600F1080528468D
S31500001F0000F084F850EA010300D138BD284600F0FD
S31500001F1071F8237E012B12D0237E13B923689847CC
S31500001F20A8B10023E376E27EA37E9A42EDD9237E12
S31500001F30013B18BF012323760023E376E5E72368F8
S31500001F4098470028E8D0E37E0133E376EBE7E37EAB
S31500001F500133E376E7E7007E7047A0B1024680884A
S31500001F60431C9BB2B2F808C09C4500D80023B2F8C7
S31500001F7006C09C450AD010B41468215493800020F2
S31500001F805DF8044B70474FF0FF3070476FF001006B
S31500001F907047A8B10346B1B18288C088824215D085
S31500001FA010B4421C92B2B3F808C0944500D800227F
S31500001FB01C68205C0870DA8000205DF8044B7047CE
S31500001FC04FF0FF3070474FF0FF3070476FF0020060
S31500001FD07047034660B18088DA88904202D3801A3F
S31500001FE080B270471B89801A13FA80F080B270475E
S31500001FF000207047034630B101220272024AD2E93C
S315000020000001C3E900017047000DFE1F034650B1F1
S31500002010027A5AB1074A106851681A685B68801AD2
S3150000202061EB03017047002001467047002001461E
S31500002030704700BF000DFE1F044A13685168013344
S3150000204041F1000113605160704700BF000DFE1F93
S3150000205038B504464FF400652A46002108F060FFB3
S3150000206096220021601908F05BFFC4F89848002307
S31500002070A4F89C38A4F89E38A4F8A05884F8A4388C
S3150000208084F8A538012284F8A628C4F8A8384FF4A5
S315000020901651C4F8AC1884F8B02884F8B138082270
S315000020A084F8B22884F8B3380249034805F0C8FD1D
S315000020B0204638BD68E40000600DFE1FF8B50446F2
S315000020C090F8A608012816D00E46154604F698077D
S315000020D03846FFF77EFF10B9012384F8A53800249F
S315000020E0AC4207D2315D3846FFF737FF20B90134DD
S315000020F0A4B2F5E70420F8BD0220FCE719B1C0F848
S31500002100A8180020704702207047FFFF10B58AB05C
S31500002110044690F8A63813B990F8A438ABB194F8F1
S31500002120A63813B994F8A538D3B90DF1030101A85F
S3150000213005F054FD9DF80330043B062B5FD8DFE81D
S3150000214003F05B5E60395E2D20008023962200F549
S3150000215000612E4805F088FE012384F8A438DEE7E6
S315000021602B4904F69800FFF714FF18B1002384F8F2
S31500002170A538DAE7802301222549244805F0A4FE84
S31500002180F4E7234904F69800FFF703FFB8BB802362
S3150000219001221F491D4805F097FE30E0002384F810
S315000021A0A438D4F8A83853B3BDF80C1004F5006071
S315000021B0984724E0BDF8103003F47F43B3F5005F81
S315000021C007D0B3F5045F10D00021104805F0F8FEE3
S315000021D015E0002384F8A43884F8A638072204F60C
S315000021E0AC010A4805F0A0FE09E0072204F6AC019E
S315000021F0064805F0BFFE02E0012384F8A6380AB0BF
S3150000220010BD012384F8A638F9E700BF600DFE1F54
S31500002210080DFE1F90F8A6087047FFFF08B5044892
S3150000222005F08AFD08B9042008BD0320FCE700BFBD
S31500002230600DFE1F38B504462249234806F07EFC91
S31500002240224B93F8243013F0400F1CD11F4A92F80A
S3150000225024306FF3000382F824301C4B93F82430AB
S3150000226013F0010FF9D1194B402283F8242093F87B
S31500002270242042F0010283F82420144B93F82430E2
S3150000228013F0010FF9D0104D0E21284606F07CFC04
S315000022900F49284606F0A2FB90B90D4A11680D4B6E
S315000022A019705168597091689970D16819711169DE
S315000022B001315971516901F26C71D9809269DA70F4
S315000022C0204638BDB0E40000D00DFE1F004004409B
S315000022D00C0DFE1F300DFE1FD1B100B58BB00A7874
S315000022E001924A7802928A7803920A7904924A798C
S315000022F0013A0592CA88A2F26C720692CB780793CD
S3150000230001A9054806F028FB20B90BB05DF804FBCF
S31500002310012070470120F8E7D00DFE1F7047FFFF30
S31500002320B1F5801F0BD208B572B6064807F0D6F88D
S3150000233010B962B6002008BD62B60120FBE7052091
S31500002340704700BF8C0DFE1FA1B110461A46B3F5AB
S31500002350801F11D210F07F0F10D108B572B6034658
S31500002360074807F0A7F810B962B6002008BD62B6A4
S315000023700120FBE701207047052070470A207047BF
S315000023808C0DFE1F08B502464FF40061014806F0A9
S3150000239089FC08BD580DFE1F08B502464FF4C06102
S315000023A0014806F07FFC08BD580DFE1F08B5024621
S315000023B040F20461014806F075FC08BD580DFE1F89
S315000023C008B5024640F20561014806F06BFC08BDFF
S315000023D0580DFE1F08B5024640F20E61014806F090
S315000023E061FC08BD580DFE1F08B5024640F20F11EC
S315000023F0014806F057FC08BD580DFE1F08B50246F9
S3150000240040F20D11014806F04DFC08BD580DFE1FA7
S3150000241008B502464FF48671014806F043FC08BD34
S31500002420580DFE1F08B5024640F20B11014806F092
S3150000243039FC08BD580DFE1F08B5024640F20931A9
S31500002440014806F02FFC08BD580DFE1F08B50246D0
S3150000245040F20221014806F025FC08BD580DFE1F7A
S3150000246008B503680BB10020984708BD08B5036896
S315000024700BB10120984708BD10B504460160FFF76F
S31500002480F5FF204610BDFFFF10B504461A49FFF7B9
S31500002490F3FF1A49201DFFF7EFFF194904F1080061
S315000024A0FFF7EAFF174904F10C00FFF7E5FF1649AD
S315000024B004F11000FFF7E0FF144904F11400FFF7E0
S315000024C0DBFF134904F11800FFF7D6FF114904F1A9
S315000024D01C00FFF7D1FF104904F12000FFF7CCFFE5
S315000024E00E4904F12400FFF7C7FF0D4904F1280047
S315000024F0FFF7C2FF204610BD852300009923000088
S31500002500AD230000C1230000D5230000E92300000D
S31500002510FD230000112400002524000039240000BA
S315000025204D24000000B583B00DF1070240F20B51B7
S31500002530054806F0A9FB9DF80700003818BF0120E2
S3150000254003B05DF804FB00BF580DFE1F00B583B055
S315000025500DF1070240F20C51054806F095FB9DF877
S315000025600700003818BF012003B05DF804FB00BF68
S31500002570580DFE1F00B583B00DF107024FF48371AD
S31500002580054806F081FB9DF80700003818BF0120BA
S3150000259003B05DF804FB00BF580DFE1F00B583B005
S315000025A00DF1070240F20711054806F06DFB9DF894
S315000025B00700003818BF012003B05DF804FB00BF18
S315000025C0580DFE1F00B583B00DF107024FF4806170
S315000025D0054806F059FB9DF80700003818BF012092
S315000025E003B05DF804FB00BF580DFE1F00B583B0B5
S315000025F00DF107024FF48271054806F045FB9DF880
S315000026000700003818BF012003B05DF804FB00BFC7
S31500002610580DFE1F00B583B00DF1070240F20511FB
S31500002620054806F031FB9DF80700003818BF012069
S3150000263003B05DF804FB00BF580DFE1F00B583B064
S315000026400DF1070240F20241054806F01DFB9DF818
S315000026500700003818BF012003B05DF804FB00BF77
S31500002660580DFE1F2DE9F04F83B004460125009555
S3150000267014232A463F49FFF72FFC04F1200B00954F
S3150000268014232A463C495846FFF726FC04F1400A23
S31500002690009514232A4639495046FFF71DFC04F1DC
S315000026A06009009514232A4635494846FFF714FC6D
S315000026B004F18008009514232A4632494046FFF764
S315000026C00BFC04F1A007009514232A462E49384630
S315000026D0FFF702FC04F1C006009514232A462B4995
S315000026E03046FFF7F9FB04F1E00318460095142382
S315000026F02A4627490546FFF7EFFB214604F5807079
S3150000270000F0C5F9594604F58C7000F0C0F9514641
S3150000271004F5987000F0BBF9494604F5A47000F082
S31500002720B6F9414604F5B07000F0B1F9394604F542
S31500002730BC7000F0ACF9314604F5C87000F0A7F99A
S31500002740294604F5D47000F0A2F90023C4F8C0317C
S31500002750C4F8C43184F8D831C4F8D931C4F8DD31AD
S3150000276084F8E13104F5E470FFF744FC204603B039
S31500002770BDE8F08F3D26000015260000ED2500007F
S31500002780C52500009D250000752500004D2500008B
S31500002790252500000A4661B190F8E131012B0AD8DF
S315000027A003F1700140F82120013380F8E131002067
S315000027B07047022070470320704770B505460E46E5
S315000027C0002403E0304698470134E4B295F8E1313D
S315000027D0A34206D904F1700355F82330002BF1D13A
S315000027E0F2E770BDF8B505460C4617461E46084684
S315000027F000F09EF902280CD0032812D0012800D040
S31500002800F8BD39462846FFF7D8FF204600F092F972
S31500002810F6E731462846FFF7D0FF204600F08AF952
S31500002820EEE79DF818102846FFF7C7FF204600F090
S3150000283081F9E5E7F8B507460C4616461D460846F3
S3150000284000F076F9012806D0204600F071F902283A
S3150000285012D00020F8BD304600F06AF90128F3D105
S3150000286029463846FFF7A9FF204600F063F93046AF
S3150000287000F060F90120EDE7304600F059F9022832
S3150000288001D00020E6E79DF818103846FFF795FFBF
S31500002890204600F04FF9304600F04CF90120D9E708
S315000028A02DE9F04F8DB0054600F5807BCDF810B0D0
S315000028B000F58C730293059300F59877069700F55B
S315000028C0A476079600F5B07ACDF820A000F5BC7383
S315000028D00393099300F5C879CDF8289000F5D478CC
S315000028E0CDF82C80002408E00CAB03EB840353F8EE
S315000028F0200C00F0D7F80134E4B2072CF4D995F88F
S31500002900D841012C37D0022C7BD08CB1002385F81E
S31500002910D831B9E005F5E470FFF76CFB012385F8C3
S31500002920D831B1E02E44002386F8D9310134E4B21F
S31500002930072C00F2A98026460CAB03EB840353F860
S31500002940207C384600F0F4F80028E3D1384600F041
S31500002950E9F80028E6D02B1993F8D931002BE5D1F8
S3150000296004F11801C9B22846FFF727FF2E440123B8
S3150000297086F8D931DAE705F5E47302931846FFF7CE
S3150000298045FB642871F1000302D3022385F8D83190
S31500002990002401E00134E4B2072C0CD80CAB03EBA5
S315000029A0840353F8200C00F0BDF80028F2D00298FA
S315000029B0FFF720FBEEE71123009310233A46594612
S315000029C02846FFF737FF1323009312233246394672
S315000029D02846FFF72FFF152300931423524631464E
S315000029E02846FFF727FF172300931623424649463A
S315000029F02846FFF71FFF002846D0002385F8D83168
S31500002A0042E0202300930823002259462846FFF778
S31500002A10E9FE212300930923012202992846FFF7A4
S31500002A20E1FE222300930A23022239462846FFF7B5
S31500002A30D9FE232300930B23032231462846FFF7B2
S31500002A40D1FE242300930C23042251462846FFF787
S31500002A50C9FE252300930D23052203992846FFF777
S31500002A60C1FE262300930E23062249462846FFF779
S31500002A70B9FE272300930F23072241462846FFF776
S31500002A80B1FE002385F8D8310DB0BDE8F08F10B542
S31500002A90044601600023037143710830FFF7AAFA68
S31500002AA0204610BD437903B1704710B5044600684F
S31500002AB0FFF721FA2379012B12D0022B28D013B16C
S31500002AC00023637110BD63712068FFF744FA002884
S31500002AD0F8D10123237104F10800FFF78BFAF1E71F
S31500002AE004F10800FFF792FA40F2D173984271F1AF
S31500002AF0000303D3022323716371E3E72068FFF722
S31500002B002AFA0128DED10023237101236371D9E754
S31500002B102068FFF720FA0128D4D10023237103236C
S31500002B206371CFE70079012814BF002001207047A8
S31500002B3040797047002343717047FFFF08B502468E
S31500002B4040F20131014806F0ADF808BD580DFE1FF0
S31500002B5008B5024640F20231014806F0A3F808BD66
S31500002B60580DFE1F08B5024640F20331014806F033
S31500002B7099F808BD580DFE1F08B502464FF441717D
S31500002B80014806F08FF808BD580DFE1F08B502462D
S31500002B9040F20531014806F085F808BD580DFE1FC4
S31500002BA008B5024640F20631014806F07BF808BD3A
S31500002BB0580DFE1F08B5024640F20731014806F0DF
S31500002BC071F808BD580DFE1F08B502464FF4427154
S31500002BD0014806F067F808BD580DFE1F01607047F2
S31500002BE008B503680120984708BD08B503680020AA
S31500002BF0984708BD10B504461349FFF7EFFF134980
S31500002C00201DFFF7EBFF124904F10800FFF7E6FF6E
S31500002C10104904F10C00FFF7E1FF0F4904F1100021
S31500002C20FFF7DCFF0D4904F11400FFF7D7FF0C494D
S31500002C3004F11800FFF7D2FF0A4904F11C00FFF760
S31500002C40CDFF204610BD00BF3D2B0000512B0000DC
S31500002C50652B0000792B00008D2B0000A12B0000B6
S31500002C60B52B0000C92B000008B5012240F20D313A
S31500002C70024806F017F8002008BD00BF580DFE1FD9
S31500002C8011F0800F24D13F2A24D84FF0010C80F890
S31500002C9018C04FEAD20C02F0070273B900B54FF024
S31500002CA0010E0EFA02FE00EBCC1001448A7F42EAC6
S31500002CB00E028A7718465DF804FB0123934000EB69
S31500002CC0CC1001448A7F22EA03028A7700207047EB
S31500002CD0062070470620704764290CD8084BA3FBD2
S31500002CE0013149080A31837E8B4206D08176012361
S31500002CF0437600207047012070470020704700BFD0
S31500002D00ABAAAAAA38B5054601230376002409E032
S31500002D10E0011830284480220021063008F000F92E
S31500002D200134E4B2072CF3D938BDFFFF10B50446D1
S31500002D300023037001220276427617228276C3763A
S31500002D40037743770830FFF755F90649064805F03B
S31500002D50FBFB2046FFF7D6FF2046FFF785FF204600
S31500002D6010BD00BF08E50000180EFE1F014B012232
S31500002D701A707047380DFE1FF0B583B061B3064672
S31500002D8014460F4652B3457F2DB1012D1ED00023A8
S31500002D904377012523E093B9002240F20A31124815
S31500002DA005F080FF0022114B1A700723009323467B
S31500002DB039460F4805F0E8FA012373770FE0012240
S31500002DC040F20A31084805F06DFFEBE7074B1B7828
S31500002DD043B10023437702E0012500E001252846A0
S31500002DE003B0F0BD0025FAE7580DFE1F380DFE1F93
S31500002DF0180EFE1F10B50446837E0C490B7390F81F
S31500002E001BC0002301226144FFF7B6FF012804D04E
S31500002E10E37E0C2B05D8022010BDE37E0133E3765A
S31500002E20F6E70023E3760320F6E700BF4408FE1F1B
S31500002E30080940F0100001F00F0141EA0020704738
S31500002E4001F00F0040F0B0007047FFFF10B582B0F0
S31500002E5004462A4B1B78012B1DD0022B2FD023B101
S31500002E60264B00221A7005200FE0254B1978FFF734
S31500002E70E7FF8DF80600002301220DF1060120462A
S31500002E80FFF77AFF012802D0042002B010BD1B4BC9
S31500002E9001221A70F8E70021FFF7CAFFADF8060015
S31500002EA0002302220DF106012046FFF765FF0128E7
S31500002EB001D00420E9E7114B02221A70F9E7104B02
S31500002EC01978C90118310144012380220631FFF720
S31500002ED053FF012801D00420D7E7094A13780133AC
S31500002EE0DBB21370072B07D9134600221A70052090
S31500002EF0024B00221A70C8E70420F9E7390DFE1FBD
S31500002F003A0DFE1F38B504460378052B13D8DFE8C3
S31500002F1003F003294D30121F002240F207212748F3
S31500002F2005F0C0FE04F108052846FFF76FF80A28E9
S31500002F3071F1000300D238BD012240F207211F487B
S31500002F4005F0B0FE052323702846FFF753F8F2E795
S31500002F500830FFF75BF8022871F10003EBD3012379
S31500002F602370E8E7FFF746FF0328E4D10323237025
S31500002F70E1E700F108052846FFF748F847F2305325
S31500002F80984271F1000309D2637E3BB9237E002B80
S31500002F90D1D00023237602232370CCE701232370AC
S31500002FA0002363762846FFF725F8C4E7FFF74EFFB0
S31500002FB00528C0D103232370BDE700BF580DFE1FAF
S31500002FC008B50379012B00D008BDFFF7CFFEFBE75C
S31500002FD0014B01221A7070473B0DFE1F70B582B07F
S31500002FE01C469DF818302648007830B1012834D0A8
S31500002FF0234B00221A70052014E00E461546214A7E
S315000030000021117083B9B4B1012C1DD007230093A0
S315000030102B46324631461C4805F0B6F9184B0122BC
S315000030201A70052002B070BD0A4640F20311174817
S3150000303005F038FEE7E7072300932B4600223146CA
S31500003040114805F0A1F9E9E7072300932B4632461C
S3150000305000210D4805F098F9E0E70A4A127862B1B6
S3150000306023B9074B00221A700420DBE7012240F245
S315000030700311064805F016FEF3E70520D2E700BF68
S315000030803C0DFE1F3B0DFE1FE80DFE1F580DFE1FDB
S3150000309070B582B005460E4611461A46394B1C7865
S315000030A0032C68D8DFE804F002203E51002240F2EB
S315000030B00311354805F0F6FD344906230B7000234D
S315000030C0009301222846FFF789FF042801D0022435
S315000030D02EE0012240F203112B4805F0E3FD294BB7
S315000030E001221A70022423E0002240F2031126482E
S315000030F005F0D8FD330E25490B70330C4B70330A9F
S315000031008B70CE7002230B70002300930422284696
S31500003110FFF764FF042801D0022409E00224194BBA
S315000031201C7005E000230093FFF758FF042802D027
S31500003130204602B070BD012240F20311124805F08C
S31500003140B1FD104B03221A70F2E7104905230B70EC
S315000031500123009302231A46FFF740FF042801D0FB
S315000031600224E5E7094B5B7813F0010F08D1054B04
S3150000317000221A70DCE7034B00221A700224D7E7FC
S315000031800224D5E74C0DFE1F580DFE1F480DFE1FED
S3150000319070B582B005468C4611461A461F4B1C7800
S315000031A03CB1012C26D000241C4B1C70204602B0DA
S315000031B070BD4FEA1C631A4E33704FEA1C4373709E
S315000031C04FEA1C23B37086F803C003233370002232
S315000031D040F20311134805F065FD00230093042215
S315000031E031462846FFF7FAFE0428DFD10B4B0122B1
S315000031F01A70DBE7002300930123FFF7EFFE042894
S3150000320001D00024D2E7012240F20311054805F05F
S3150000321049FD024B00221A70C8E700BF440DFE1F8D
S31500003220400DFE1F580DFE1F08B50379012B00D077
S3150000323008BDFFF7CDFEFBE70160828000228271A8
S31500003240028142817047FFFF10B504460A2200F151
S315000032500C01FFF7F1FF0349034805F075F9204615
S3150000326010BD00BFD8E40000E80DFE1F39B310B54D
S3150000327084468E46837923BB046803895A1C0281DF
S3150000328003EB830304EB8304BEE80F000FC4DEF8F0
S3150000329000302360BCF80420BCF80830B3FBF2F120
S315000032A002FB11339BB2ACF80830BCF80A209342FB
S315000032B001D0012010BD01208CF80600FAE700209D
S315000032C070470020F6E7BAB110B586B01446002262
S315000032D00192029203920492059201228DF8042033
S315000032E0029103930494089B059301A9FFF7BEFF7F
S315000032F020B9032006B010BD022070470020F9E770
S31500003300A2B110B586B01446002201920292039231
S3150000331004920592029103930494089B059301A9D4
S31500003320FFF7A4FF20B9032006B010BD02207047A6
S315000033300020F9E72DE9F04782B00A9F002A48D01D
S31500003340804689461C46164621F0FF0505F5807520
S31500003350CB18AB4231D9A5EB010A002300935346A3
S31500003360FFF7CEFF0346B0BBA9EB05094C44564414
S315000033700FE000974FF48073324629464046FFF728
S31500003380BFFF034608BB06F5807605F58075A4F5F4
S315000033908074FF2C0FD9B4F5807FEAD00023009308
S315000033A04FF48073324629464046FFF7A9FF03468D
S315000033B00028E8D009E044B1A946009723463246E2
S315000033C049464046FFF79CFF0346184602B0BDE853
S315000033D0F0870223F9E70023F7E7D1B102468C46CE
S315000033E0807918B911895389994214D000B51368A8
S315000033F0B2F80AE00EEB8E0E03EB8E0EBEE80F005F
S31500003400ACE80F00DEF80030CCF8003001205DF8A3
S3150000341004FB00207047704751B310B584468E46B2
S31500003420807928B9BCF80820BCF80A309A421ED028
S3150000343000238CF80630DCF80040BCF80A305A1C31
S31500003440ACF80A2003EB830304EB83040FCCAEE84D
S315000034500F002368CEF80030BCF80420BCF80A3010
S31500003460B3FBF2F102FB1133ACF80A30012010BDB8
S315000034700020704710B586B0044601A9FFF7ADFFDE
S3150000348048B11F4B1B78012B12D0022B24D023B13D
S315000034901B4B00221A7006B010BD9DF804301BB9F4
S315000034A0174B01221A70F6E7154B02221A70F2E743
S315000034B0039B049A02992046FFF7EAFD0328EAD106
S315000034C0059B0BB10020984701A92046FFF7A4FFF2
S315000034D00B4B00221A70DEE7039B049A02992046E2
S315000034E0FFF756FE0128D6D1059B03B1984701A9DF
S315000034F02046FFF791FF024B00221A70CBE700BF70
S315000035003D0DFE1F08B5FFF7B5FF08BD012380F886
S315000035105C300B78072B10D8DFE803F00408040FA3
S315000035200C0F0C0C012380F85D307047012380F8E6
S315000035305D307047002380F85D30704708B501465E
S31500003540024B186808B1FFF7E1FF08BD500DFE1FDA
S315000035500160828000228271028142817047FFFFF2
S3150000356010B50446042200F10C01FFF7F1FF002319
S3150000357084F85C3084F85D3084F85E300349044892
S3150000358005F0D6FE034B1C60204610BD9CE40000EF
S315000035908C0DFE1F500DFE1FD1B102468C46807960
S315000035A018B911895389994214D000B51368B2F835
S315000035B00AE00EEB8E0E03EB8E0EBEE80F00ACE8B3
S315000035C00F00DEF80030CCF8003001205DF804FB77
S315000035D000207047704751B310B584468E468079F7
S315000035E028B9BCF80820BCF80A309A421ED000233D
S315000035F08CF80630DCF80040BCF80A305A1CACF8EF
S315000036000A2003EB830304EB83040FCCAEE80F0020
S315000036102368CEF80030BCF80420BCF80A30B3FBAF
S31500003620F2F102FB1133ACF80A30012010BD002084
S315000036307047FFFF30B587B004460DF117013248D9
S3150000364005F06AFD10B99DF817300BB107B030BD13
S3150000365069462046FFF7A0FF0028F7D094F85E30B1
S315000036607BB1012BF2D194F85C30002BEED09DF8A3
S315000036700C30012B30D094F85D30002B41D0022560
S315000036802EE000231A4621491F4805F053FD012369
S3150000369084F85E309DF80C509D420DD0BDF8082090
S315000036A00099194805F01AFF0028CFD06946204630
S315000036B0FFF791FF03251EE0029B009A019912482D
S315000036C005F0F8FE0028C1D069462046FFF783FFC3
S315000036D0002384F85E300EE094F85D5085F0010515
S315000036E0002384F85C3084F85E3069462046FFF794
S315000036F072FF062DAAD0049B002BA7D02846984718
S31500003700A4E70325ECE700BF8C0DFE1F3D35000046
S3150000371039B310B584468E46837923BB0468038982
S315000037205A1C028103EB830304EB8304BEE80F00FB
S315000037300FC4DEF800302360BCF80420BCF8083063
S31500003740B3FBF2F102FB11339BB2ACF80830BCF8C4
S315000037500A20934201D0012010BD01208CF80600FA
S31500003760FAE7002070470020F6E7BAB110B586B038
S31500003770144601F13F4202F57002B2F5004F0FD236
S3150000378001910294039301238DF81030089B059351
S3150000379001A9FFF7BDFF30B9032002E00220704700
S315000037A0052006B010BD0020FBE701F13F4C0CF5EB
S315000037B0700CBCF5004F11D200B587B00191002105
S315000037C00291ADF80C208DF81010059301A9FFF7B2
S315000037D09FFF28B9032007B05DF804FB052070475A
S315000037E00020F8E77047FFFF10B50446024903487A
S315000037F006F064F8204610BD94E40000840DFE1F18
S3150000380000B585B00191029203906A4601A9044869
S3150000381006F0D6F8BDF8000005B05DF804FB00BF61
S31500003820840DFE1F38B504466830FFF739F8201DB1
S31500003830FFF700FF04F51670FFF764FB04F5CF658C
S315000038402846FEF763FC294604F582501130FFF73F
S31500003850C9FF04F62C70FFF755FE024805F00CFA76
S3150000386038BD00BF880EFE1F08B5FEF7E5FB08BD94
S3150000387010B5044C0449204605F0D8FB204605F057
S31500003880D6FA10BD480EFE1F38E5000010B5064CEE
S3150000389001224FF40271204605F004FA01220721A5
S315000038A0204605F0FFF910BD580DFE1F10B5044661
S315000038B00430FFF755FE04F16800FEF7D3FE04F569
S315000038C01470FEF7B7FC04F51670FFF72FFA04F52F
S315000038D0CF60FEF7BDFB04F62C70FFF7B5FC04F5D0
S315000038E08050FFF781FF04F580500430FEF7CCFDD1
S315000038F004F581501030FFF77DF904F58250103041
S31500003900FEF70CFD2046FFF7B3FF2046FFF7BEFF8C
S315000039100249034805F0AAF9204610BDE8E5000073
S31500003920880EFE1F10B500F5CF60FEF777FC044C3D
S31500003930204605F077FA204605F0BCFA10BD00BF18
S31500003940480EFE1F1B2802D0172804D07047044BD0
S3150000395001221A707047034B01221A70F6E700BF66
S31500003960540DFE1F550DFE1F10B5044614224021AE
S31500003970FCF730FF02492046FCF7BBFF10BD00BF35
S315000039805CE4000010B50C4603284BD8DFE800F0D5
S31500003990021B2B3A01F10800FEF768FD04F10C004A
S315000039A0FEF764FD04F11C00FEF760FD04F128003B
S315000039B0FEF756FD04F12400FEF752FD04F1200047
S315000039C0FEF74EFD10BD01F12800FEF74FFD04F194
S315000039D02400FEF74BFD04F11000FEF741FD2046E2
S315000039E0FEF73EFDEEE701F12000FEF73FFD204623
S315000039F0FEF73CFD201DFEF733FD04F11400FEF733
S31500003A002FFDDFE701F11000FEF730FD201DFEF768
S31500003A102DFD04F11800FEF723FD04F10800FEF762
S31500003A201FFDCFE701F11400FEF720FD04F1180099
S31500003A30FEF71CFD04F10C00FEF712FD04F11C005C
S31500003A40FEF70EFDBEE7FFFF72B64FF480331A682D
S31500003A50596804488360044B00209880DA609546D4
S31500003A608F46704700ED00E0000D004008B51D4987
S31500003A70002000F027FA00B108BD1B4900F022FA29
S31500003A80B8B1012006F0F8F9184A92F824306FF31D
S31500003A90000382F82430154B93F8243013F0010FFD
S31500003AA0F9D11049002000F0E3F9114B114ADA6010
S31500003AB0FEE74FF47A71C82006F02AF9012006F0D5
S31500003AC0DBF90D4B012283F880244FF47A71C8206C
S31500003AD006F01EF90449002000F0CAF9044B054A15
S31500003AE0DA60FEE735211414182818270040044030
S31500003AF000ED00E00400FA0500E0014038B5124B85
S31500003B001A68124B9A4205D10F4BD3F8FC20104B82
S31500003B109A4216D00C4D00242C716C71AC71EC716C
S31500003B20F422214605F1080007F0FAF9074B2B604D
S31500003B3003F1882303F508037833C5F8FC302046E3
S31500003B4038BD0120FCE700BF00FE03207856341282
S31500003B50F0DEBC9A38B50546012412E0402C74D03C
S31500003B60802C79D105F582500C3002E005F58150A4
S31500003B7010303A4B5B7923426BD0FFF731F8640083
S31500003B80E4B2002C68D0354B1B792342F7D0202CA9
S31500003B90E4D863B2002B5FD0631E1F2B5CD801A252
S31500003BA052F823F06D3B0000253C0000593C000014
S31500003BB02D3C0000593C0000593C0000593C0000D7
S31500003BC0353C0000593C0000593C0000593C0000BF
S31500003BD0593C0000593C0000593C0000593C00008B
S31500003BE03D3C0000593C0000593C0000593C000097
S31500003BF0593C0000593C0000593C0000593C00006B
S31500003C00593C0000593C0000593C0000593C00005A
S31500003C10593C0000593C0000593C0000593C00004A
S31500003C20433C000005F581501430A2E705F58150AC
S31500003C3018309EE705F581501C309AE705F582504D
S31500003C4097E705F58250043093E705F58250083072
S31500003C508FE7FEF7CAFF92E738BD00BF00FE0320DC
S31500003C60064BD3F89C3193F82C30462B02D04FF4F8
S31500003C70002070474FF48010704700BF00B07F40AF
S31500003C8070B5ADF5895D84B0FFF7F0FE36A8FFF795
S31500003C900DFEFFF733FF00285ED1FFF7E1FF054673
S31500003CA03221CCA8FFF718F836A932A8FCF72BFD6D
S31500003CB036A929A8FCF740FF28AE36A93046FCF7FE
S31500003CC079FE25AC29462046FCF724FF029401958F
S31500003CD0009629AB32AA36A90FA8FDF7AFF85549C9
S31500003CE050A8FEF757FD04A8FEF7CEFB04A8FEF782
S31500003CF0BDFB05A8FEF7BAFB06A8FEF7B7FB07A8AB
S31500003D00FEF7B4FB08A8FEF7B1FB09A8FEF7AEFB69
S31500003D100AA8FEF7ABFB0BA8FEF7A8FB0CA8FEF75C
S31500003D20A5FB0DA8FEF7A2FB0EA8FEF79FFB2EA88B
S31500003D30FEF760F90024312C12D836A8FFF772FD81
S31500003D402EA8FEF763F9022871F10003F3D32EA81B
S31500003D50FEF750F90134EEE736A8FFF7FBFE9CE7C5
S31500003D600FA8FDF7B3FD344B1B7A2BB1324B002263
S31500003D701A72324B01221A70304B1B782BB12EA8C7
S31500003D80FEF738F900252C4627E025A8FCF7D2FED9
S31500003D9018B932A8FFF7E8FDF1E736A8FFF7C2FD2C
S31500003DA0FFF752FEF5E704A92046FFF7EBFD2EA824
S31500003DB0FEF720F9224B1B78EBB955B32AA8FEF77C
S31500003DC025F9642871F1000304D336A8FFF7AAFD8C
S31500003DD0FFF73AFE36A8FFF725FD2EA8FEF716F9DF
S31500003DE040F2E933984271F10003E3D30134042C25
S31500003DF0D9D90024D7E725A8FCF786FE18B932A83A
S31500003E00FFF7B2FDD9E736A8FFF78CFDFFF71CFEDA
S31500003E10F5E70FA8FDF774FF012805D00228D9D1D0
S31500003E2032A8FFF7A1FDD5E72AA8FEF7E3F801259A
S31500003E30D0E700BF4539000000FE0320540DFE1FE9
S31500003E40550DFE1FB0F5007F01D300207047024BD1
S31500003E50C1540120704700BF00E50140B0F5007F66
S31500003E6001D300207047014BC05C704700E501405C
S31500003E7038B505460C46C9B2FFF7E4FFC4F307217F
S31500003E80681CFFF7DFFFC4F30741A81CFFF7DAFF42
S31500003E90210EE81CFFF7D6FF38BD38B504460330BF
S31500003EA0FFF7DCFF0502A01CFFF7D8FF05432D0234
S31500003EB0601CFFF7D3FF05432D022046FFF7CEFF18
S31500003EC0284338BD10B50C46FFF7E7FFA04214BFE4
S31500003ED00020012010BDFFFF022800D0704708B562
S31500003EE00249034804F094FF08BD00BFFCE500004A
S31500003EF0580DFE1F08B5FFF7C3FE08BD08B5FFF74E
S31500003F00F9FF002008BDFFFF1D4B1B88012B00D0C9
S31500003F10704700B58BB0C36802699B1A0393837F11
S31500003F208DF80630022B0ED082238DF80730838C55
S31500003F30042B1AD0052B1DD0032B08D040F2DC53DE
S31500003F40ADF8083006E080238DF80730EFE7002350
S31500003F50ADF8083090F820308DF8043001A909201A
S31500003F6001F082FD0BB05DF804FB40F2DE53ADF8C4
S31500003F700830EFE740F2DF53ADF80830EAE700BF5C
S31500003F801810FE1F164B1B88012B00D0704700B57A
S31500003F908BB0837F8DF80630012B04D0C3B9822302
S31500003FA08DF8073002E080238DF80730838C012BD3
S31500003FB012D040F2DC53ADF8083090F820308DF87E
S31500003FC0043001A90A2001F04FFD0BB05DF804FB97
S31500003FD081238DF80730E9E70023ADF80830ECE7D8
S31500003FE01810FE1F10B5044669B900F087FC10F4DE
S31500003FF0807F02D04FF480700CE0204600F0B2FCC7
S3150000400000F07F0006E000F0F1FC204600F03AFDEB
S31500004010C0F30A0010BDFFFF2DE9F84305460C4624
S3150000402090F820309EB2354A32F813309BB2022BFC
S315000040304CD000272146284600F0C2FA21462846E1
S3150000404000F008FB2146284600F05AFB2146284688
S3150000405001F0E6FC2146284600F0C8FC781E80B236
S3150000406001283DD9DFF89C8004EB8407642303FB19
S3150000407006F606EB470747447988284600F0EAFC2F
S31500004080F988284600F01AFD3989284600F02EFDE9
S315000040900021284600F0AAFC2146284600F0CEFD65
S315000040A02146284601F0A7FC2146284600F068FD77
S315000040B02146284600F05AFB2146284600F07AFBA6
S315000040C02146284600F09AFBBDE8F8830C4B0022F7
S315000040D043F8212002F04AFA074695F82060A9E73E
S315000040E0084904EB8403642206FB02F202EB430355
S315000040F00B445A8842F480625A80B3E7D016FE1FFA
S31500004100A40EFE1FF40EFE1F70B506460D460122D4
S3150000411000F004FE002401E00134A4B24FF6FF7360
S315000041209C4209D02946304600F0F8FC10F0200FDA
S31500004130F2D14FF6FE74EFE770BD02B1704738B5A5
S31500004140054643EA010448F22F0344F400420021E5
S3150000415000F0CEF90021284600F0C4F900F02F0344
S315000041609C42F7D138BD70B505461646FFF7E5FF08
S315000041700024632C12D83146284600F0E5F910F4E5
S31500004180005F0CD1284600F0E5F8284600F0FCF860
S315000041900A2000F079FF0134A4B2EAE7FF2070BDDF
S315000041A070B504460D46164600F020FE32462946F6
S315000041B0204600F03BFE2946204600F0D7FD70BDA4
S315000041C038B504460D4600F0F1FD2946204600F0BC
S315000041D00DFE38BD38B504460D4690F82020294B13
S315000041E033F812309BB2022B46D02946204601F006
S315000041F017FC2946204600F0E3F92946204600F040
S3150000420029FA2946204600F07BFA00231A46194669
S315000042102046FFF792FF2946204600F0E7FB0021E3
S31500004220204600F017FC0021204600F047FC002144
S31500004230204600F05BFC0021204600F0D7FB294613
S31500004240204600F0FBFC2946204601F0D4FB294617
S31500004250204600F095FC29462046FFF7B1FF294687
S31500004260204600F083FA2946204600F0A3FA2946A4
S31500004270204600F0C3FA38BD034B002243F8212044
S31500004280B3E700BFD016FE1FA40EFE1F90F8202035
S31500004290104B33F812309BB2022B18D101290AD0E9
S315000042A002290ED009B100207047012A01D00A4820
S315000042B070470A487047012A01D0094870470948E3
S315000042C07047012A01D00848704708487047002007
S315000042D0704700BFD016FE1F200009402000064090
S315000042E028000940280006402C0009402C00064002
S315000042F090F82020104B33F812309BB2022B18D1C5
S3150000430001290AD002290ED009B100207047012ADE
S3150000431001D00A4870470A487047012A01D0094867
S31500004320704709487047012A01D008487047084875
S3150000433070470020704700BFD016FE1F22000940BC
S31500004340220006402A0009402A0006402E000940A5
S315000043502E00064090F82020084B33F812309BB20E
S31500004360022B01D0002070471AB9054B188880B27D
S315000043707047044B188880B2704700BFD016FE1FE6
S31500004380000009400000064090F82020084B33F852
S3150000439012309BB2022B01D0002070471AB9054B90
S315000043A0988880B27047044B988880B2704700BFE7
S315000043B0D016FE1F000009400000064090F820209D
S315000043C0084B33F812309BB2022B01D00020704705
S315000043D01AB9054B188980B27047044B188980B208
S315000043E0704700BFD016FE1F0000094000000640BF
S315000043F090F820200A4B33F812309BB2022B01D0E2
S315000044000020704749B9012A03D0064B988A80B22A
S315000044107047054BD88A80B270470020704700BFAE
S31500004420D016FE1F000009400000064090F820004C
S31500004430124B33F810309BB2022B05D0012911D054
S31500004440022912D059B170470128F7D101290FD09E
S31500004450022910D00029F6D1094BDA827047094BA0
S315000044609A827047074B1A837047064B9A837047A8
S31500004470034B5A837047024BDA83E4E7D016FE1FDC
S31500004480000006400000094090F82000124B33F867
S3150000449010309BB2022B05D0012911D0022912D06F
S315000044A059B170470128F7D101290FD0022910D040
S315000044B00029F6D1094BDA757047094B1A75704712
S315000044C0074B1A767047064B1A777047034BDA7616
S315000044D07047024BDA77E4E7D016FE1F000006406D
S315000044E00000094008B5FFF7D1FE008880B208BD7C
S315000044F038B515461C46FFF7C9FE018889B221EA80
S31500004500040104EA05030B43038038BD38B50446AD
S315000045101546FFF7BBFE94F820200A4B33F81230FD
S315000045209BB2022B00D038BD03889BB223F44063B4
S315000045309BB20380002DF6D0028892B21543058007
S31500004540F1E700BFD016FE1F08B5FFF7D1FE0088C1
S3150000455080B208BD08B5FFF7CBFE03886FEA434378
S315000045606FEA53439BB2038008BD08B5FFF7C0FE50
S315000045704FF48043038008BD90F820200D4B33F89C
S3150000458012309BB2022B00D070474AB90A48C38E3C
S315000045901BB2012202FA01F1194389B2C1867047A2
S315000045A00648C38E1BB2012202FA01F1194389B2F1
S315000045B0C186E9E7D016FE1F00000940000006404C
S315000045C090F820200E4B33F812309BB2022B00D00D
S315000045D0704752B90B48C38E1BB2012202FA01F191
S315000045E023EA010189B2C18670470748C38E1BB210
S315000045F0012202FA01F123EA010189B2C186E7E745
S31500004600D016FE1F000009400000064090F820204A
S315000046100D4B33F812309BB2022B00D070474AB9CB
S315000046200A48038F1BB2012202FA01F1194389B22B
S31500004630018770470648038F1BB2012202FA01F177
S31500004640194389B20187E9E7D016FE1F0000094029
S315000046500000064090F820200E4B33F812309BB233
S31500004660022B00D0704752B90B48038F1BB20122B0
S3150000467002FA01F123EA010189B20187704707486E
S31500004680038F1BB2012202FA01F123EA010189B26A
S315000046900187E7E7D016FE1F00000940000006402C
S315000046A090F82020124B33F812309BB2022B00D028
S315000046B0704762B90F4B23F811200F48438F1BB286
S315000046C0012202FA01F1194389B24187704701F1CB
S315000046D00A02084B002023F812000848438F1BB239
S315000046E0012202FA01F1194389B24187E0E700BFCE
S315000046F0D016FE1FCC0EFE1F00000940000006402B
S3150000470090F820200E4B33F812309BB2022B00D0CB
S31500004710704752B90B48438F1BB2012202FA01F1CE
S3150000472023EA010189B2418770470748438F1BB2CC
S31500004730012202FA01F123EA010189B24187E7E782
S31500004740D016FE1F000009400000064020B9054BA8
S31500004750B3F8400080B27047034BB3F8400080B214
S31500004760704700BF000009400000064090F8202076
S315000047700D4B33F812309BB2022B00D070474AB96A
S31500004780012303FA01F1C943C1F30901074BA3F859
S3150000479046107047012303FA01F1C943C1F3090129
S315000047A0034BA3F84610E9E7D016FE1F00000940A8
S315000047B00000064090F820200D4B33F812309BB2D3
S315000047C0022B00D070474AB9012303FA01F1C9430D
S315000047D0C1F30901074BA3F848107047012303FAF8
S315000047E001F1C943C1F30901034BA3F84810E9E7F6
S315000047F0D016FE1F000009400000064090F8202059
S315000048000D4B33F812309BB2022B00D070474AB9D9
S31500004810012303FA01F1C943C1F30901074BA3F8C8
S315000048204A107047012303FA01F1C943C1F3090194
S31500004830034BA3F84A10E9E7D016FE1F0000094013
S315000048400000064090F82020094B33F812309BB246
S31500004850022B01D00020704722B9064BB3F84C005A
S3150000486080B27047044BB3F84C0080B2704700BF6B
S31500004870D016FE1F000009400000064020B9054B77
S31500004880B3F8540080B27047034BB3F8540080B2BB
S31500004890704700BF000009400000064020B9054BE4
S315000048A0B3F8560080B27047034BB3F8560080B297
S315000048B0704700BF000009400000064020B9054BC4
S315000048C0B3F8580080B27047034BB3F8580080B273
S315000048D0704700BF000009400000064020B9054BA4
S315000048E0B3F85A0080B27047034BB3F85A0080B24F
S315000048F0704700BF000009400000064090F82020E5
S31500004900094B33F812309BB2022B01D000207047BE
S3150000491022B9064BB3F85C0080B27047044BB3F87B
S315000049205C0080B2704700BFD016FE1F0000094031
S315000049300000064090F82020074B33F812309BB257
S31500004940022B00D070471AB9044BA3F85C107047CD
S31500004950034BA3F85C10F5E7D016FE1F00000940D4
S315000049600000064090F82020094B33F812309BB225
S31500004970022B01D00020704722B9064BB3F85E0027
S3150000498080B27047044BB3F85E0080B2704700BF38
S31500004990D016FE1F000009400000064090F82020B7
S315000049A0074B33F812309BB2022B00D070471AB96E
S315000049B0044BA3F85E107047034BA3F85E10F5E7AF
S315000049C0D016FE1F000009400000064020B9054B26
S315000049D0B3F8600080B27047034BB3F8600080B252
S315000049E0704700BF000009400000064090F82020F4
S315000049F0074B33F812309BB2022B00D070471AB91E
S31500004A00044BA3F864107047034BA3F86410F5E752
S31500004A10D016FE1F000009400000064090F8202036
S31500004A20094B33F812309BB2022B01D0002070479D
S31500004A3022B9064BB3F8680080B27047044BB3F84E
S31500004A40680080B2704700BFD016FE1F0000094004
S31500004A500000064090F82020074B33F812309BB236
S31500004A60022B00D070471AB9044BA3F868107047A0
S31500004A70034BA3F86810F5E7D016FE1F00000940A7
S31500004A800000064090F82020094B33F812309BB204
S31500004A90022B01D00020704722B9064BB3F86C00F8
S31500004AA080B27047044BB3F86C0080B2704700BF09
S31500004AB0D016FE1F000009400000064090F8202096
S31500004AC0074B33F812309BB2022B00D070471AB94D
S31500004AD0044BA3F86C107047034BA3F86C10F5E772
S31500004AE0D016FE1F000009400000064090F8202066
S31500004AF0074B33F812309BB2022B00D070471AB91D
S31500004B00044BA3F86E107047034BA3F86E10F5E73D
S31500004B10D016FE1F000009400000064082B00023A8
S31500004B20ADF8063090F82020104B33F812309BB2C7
S31500004B30022B04D0BDF8060080B202B0704752B90D
S31500004B4039B10B4B03EB41010B889BB2ADF8063034
S31500004B50F0E70849F8E739B1074B03EB41010B8849
S31500004B609BB2ADF80630E5E70449F8E7D016FE1F1C
S31500004B706E000940600009406E0006406000064075
S31500004B8090F820200A4B33F812309BB2022B00D04B
S31500004B90704742B9074B03EB41010B889BB243F4C4
S31500004BA000530B80F4E7044B03EB4101F5E700BF2C
S31500004BB0D016FE1F6E0009406E00064090F82020B9
S31500004BC00C4B33F812309BB2022B00D0704742B91F
S31500004BD0094A32F811309BB243F4007322F81130BF
S31500004BE07047064A32F811309BB243F4007322F83C
S31500004BF01130EBE7D016FE1F6E0009406E0006402E
S31500004C0090F820200A4B33F812309BB2022B00D0CA
S31500004C1070474AB9074B03EB41010B889BB223F45B
S31500004C2000739BB20B80F3E7034B03EB4101F4E700
S31500004C30D016FE1F6E0009406E00064090F8202038
S31500004C40164B33F812309BB2022B00D0704792B944
S31500004C5041B9134AB2F860309BB243F48073A2F8AC
S31500004C60603070470F4A32F811309BB243F48073BC
S31500004C7022F81130704741B90B4AB2F860309BB246
S31500004C8043F48073A2F860307047084A32F8113056
S31500004C909BB243F4807322F81130D7E7D016FE1F7B
S31500004CA0000009406E000940000006406E00064004
S31500004CB090F82000144B33F810309BB2022B00D032
S31500004CC0704780B969B1114B03EB41010B889BB268
S31500004CD023F003039BB20B800B889BB21A430A8016
S31500004CE070470B49F2E769B10A4B03EB41010B88A8
S31500004CF09BB223F003039BB20B800B889BB21A4333
S31500004D000A80DDE70449F2E7D016FE1F6E0009406F
S31500004D10600009406E0006406000064090F82000E2
S31500004D200D4B33F810309BB2022B00D0704750B9B0
S31500004D3071B10A4B03EB41010B881BB223EA020255
S31500004D4092B20A80F2E729B1054B03EB4101F3E782
S31500004D500449F1E70449EFE7D016FE1F6E0009404B
S31500004D606E000640600009406000064090F8202072
S31500004D700B4B33F812309BB2022B00D070474AB966
S31500004D800139084B03EB81010B889BB243F4007396
S31500004D900B80F3E70139044B03EB8101F4E700BF15
S31500004DA0D016FE1F900009409000064090F8202083
S31500004DB00B4B33F812309BB2022B00D0704752B91E
S31500004DC00139084B03EB81010B889BB223F4007376
S31500004DD09BB20B80F2E70139034B03EB8101F3E74A
S31500004DE0D016FE1F900009409000064090F8202043
S31500004DF00B4B33F812309BB2022B00D070474AB9E6
S31500004E000139084B03EB81010B889BB243F4807395
S31500004E100B80F3E70139044B03EB8101F4E700BF94
S31500004E20D016FE1F900009409000064090F8200022
S31500004E30094B33F810309BB2022B00D0704728B9CB
S31500004E400139064B03EB81010A80F7E70139044B70
S31500004E5003EB8101F8E700BFD016FE1F9200094060
S31500004E6092000640002070477047704708B5044B13
S31500004E701B889BB2012B00D108BD01F019FBFBE793
S31500004E80D016FE1F08B500F0F7FB08BDB0B91A4BE7
S31500004E90D3F8003113F4006F28D0EFF3108101230B
S31500004EA083F31088144BD3F8002122F40062C3F870
S31500004EB00021D3F8003181F3108870470E4BD3F8E8
S31500004EC0003113F4805F14D0EFF31081012383F3D4
S31500004ED01088094BD3F8002122F40062C3F80021A0
S31500004EE0D3F8003181F310880020704740F2DD507E
S31500004EF0704740F2DD507047006F044000285AD1D9
S31500004F00334BD3F8003113F4006F58D1314B0022E4
S31500004F101A818021A3F86010A3F87020A3F87220EC
S31500004F20A3F87420A3F87620A3F87820A3F87A20B3
S31500004F30A3F87C20A3F87E20A3F88020DA861A87BF
S31500004F405A871A865A86198889B221F0100189B2C1
S31500004F501980198889B221F0200189B2198019882F
S31500004F6089B221F0010189B21980198889B221F02C
S31500004F70400189B21980A3F84620A3F84820A3F877
S31500004F804A20A3F59223A3F58073D3F8003113F4D6
S31500004F90006F17D1EFF31081012383F310880C4BB8
S31500004FA0D3F8002142F40062C3F80021D3F800319F
S31500004FB081F310887047012807D10020704740F21E
S31500004FC0DC5070474FF4BC60704740F2E2507047C7
S31500004FD0006F04400000094000B1704770B4254BD3
S31500004FE0D3F800246FF30412C3F8002491F90D30AE
S31500004FF0087D0001C0B2204AD41884F800031F4E71
S3150000500046F823101E4C03F1C00054F820506FF3ED
S31500005010104544F8205003F01F055B09012000FAF3
S3150000502005F503F1600C42F82C5042F8235091F933
S315000050300C3091F813C04FEA0C1C5FFA8CFCD518A3
S3150000504085F800C346F8231003F1C00554F825601F
S315000050506FF3104644F8256003F01F045B09A04077
S3150000506003F1600442F8240042F82300054B19605E
S3150000507070BC70470000094000E100E02817FE1FE1
S31500005080006000409C0EFE1F08B5012104F040FEA2
S3150000509008BD08B54FF47A7104F03AFE08BDFFFF6B
S315000050A008B5EFF30383C3F30803103B5BB2054A6D
S315000050B0C03352F823106FF3104142F82310FFF764
S315000050C0D5FE08BD0060004008B5EFF30383C3F3C7
S315000050D00803103B5BB2084A03F1C00152F82100F5
S315000050E06FF3104042F82100044A52F823309878B2
S315000050F0FFF7C8FE08BD00BF006000402817FE1F6E
S31500005100EFF30383C3F30803103B5BB2044AC033D7
S3150000511052F823106FF3104142F82310704700BF76
S3150000512000600040EFF30383C3F30803103B5BB258
S31500005130044AC03352F823106FF3104142F823108B
S31500005140704700BF006000402DE9F84305460E4653
S315000051501446012A36D09D4BB3F8402092B2B3F8DC
S3150000516046801FFA88F8B3F84870BFB2B3F84AE031
S315000051701FFA8EFEB3F830C01FFA8CF9D98E89B2A9
S31500005180188F80B25B8F9BB24FF0000CA5F800C061
S31500005190A6F800C002EA090C08EA010138400EEA46
S315000051A0030312F47F4F0BD01CF4804F2AD0012C3E
S315000051B022D0864B4BF6FF72A3F8402012232B8099
S315000051C0BDE8F883824BB3F8402092B2B3F846802C
S315000051D01FFA88F8B3F84870BFB2B3F84AE01FFA6E
S315000051E08EFEB3F830C01FFA8CF9D98E89B2188FAB
S315000051F080B25B8F9BB2C7E7754B4BF6FF72A3F885
S315000052004020DBE71CF4004F0CD11CF4005F1FD0DC
S31500005210012C17D06D4B4DF6FF72A3F840201323D7
S315000052202B80CDE7012C07D0684B47F6FF72A3F819
S31500005230402011232B80C3E7654B47F6FF72A3F886
S315000052404020F6E7624B4DF6FF72A3F84020E6E7F2
S315000052501CF4805F10D0012C08D05C4B4EF6FF7119
S31500005260A3F8401014232B803280A9E7584B4EF642
S31500005270FF71A3F84010F5E71CF4807213D011F00B
S31500005280010F10D0012C08D0504B40F2FE32A3F88B
S31500005290462001232B80338092E74D4B40F2FE32AD
S315000052A0A3F84620F5E71CF4806714D013F0010F2D
S315000052B011D0012C09D0454B40F2FE32A3F84A200A
S315000052C002232B80012333807AE7414B40F2FE32E2
S315000052D0A3F84A20F4E71CF4007E14D010F0010F66
S315000052E011D0012C09D0394B40F2FE32A3F84820E8
S315000052F003232B800123338062E7354B40F2FE32D5
S31500005300A3F84820F4E71CF4006F0CD192B3012CEB
S3150000531029D0CB43C3F309032C4AA2F84630012314
S315000053202B8031804CE72046FFF710FA3080012CA5
S3150000533013D0264B4FF2FF72A3F8402015232B8083
S31500005340337803F00703062B7FF43AAF204600F0CC
S31500005350A5F900232B80338032E71D4B4FF2FF72F5
S31500005360A3F84020EAE7CB43C3F30903184AA2F89F
S315000053704630D4E797B1012C09D0DA43C2F30902CB
S315000053801249A1F84A2002222A80338018E7DA431C
S31500005390C2F309020E49A1F84A20F4E7BEF1000F54
S315000053A03FF40EAF012C09D0C343C3F30903074AE8
S315000053B0A2F8483003232B80308001E7C343C3F3B0
S315000053C00903034AA2F84830F4E700BF0000094089
S315000053D00000064010B5044600F060F92046FFF7CD
S315000053E04DFA094B18802046FFF758FA074B1880EC
S315000053F02046FFF763FA064B18802046FFF76EFA41
S31500005400044B188010BD00BFA012FE1FA212FE1F83
S315000054109412FE1F9612FE1F08B590F82000FFF7A3
S3150000542095F900F07000302801D0002008BD012059
S31500005430FCE7704710B5044690F8200000F01CF910
S3150000544094F8200000F002F910BD08B50B460222C0
S3150000545001461846FFF72CFC08BD08B502220021BC
S31500005460FFF726FC08BD2DE9F04180460F4615469C
S315000054701E46440807E035F8022B39463046FEF74B
S31500005480D5FF013CA4B2002CF5D118F0010F02D1D2
S315000054902846BDE8F081002239463046FFF736F847
S315000054A015F8012B39463046FEF7EEFF4FF48062C1
S315000054B039463046FFF72AF8EAE72DE9F0418046FB
S315000054C00F4615461E46440807E039463046FEF7A5
S315000054D08FFF25F8020B013CA4B2002CF5D118F081
S315000054E0010F02D12846BDE8F08139463046FEF765
S315000054F07FFF05F8010BF5E7F8B504460E4615469D
S3150000550001461046FEF700FE21462846FFF758F8EA
S3150000551021462846FFF79EF821462846FFF7F0F871
S3150000552021462846FEF74CFE00212846FEF7DAFF04
S3150000553000F00F00844226D02146284600F05BFA90
S3150000554021462846FFF71CFB124B53F82430CBB1FB
S31500005550114A52F824201A610E4F57F824309E84BF
S3150000556057F8246021462846FFF7D8FAF08457F802
S315000055702400436813B1002211469847054B0022C8
S3150000558043F82420F8BD00231A4619462846FEF79C
S31500005590D4FDD1E7A40EFE1FBC0FFE1F08B5064BB7
S315000055A01B8803B908BDFFF75FFC6420FFF76CFD9D
S315000055B0014B00221A80F5E7A00EFE1F08B5034B2B
S315000055C001221A80FFF751FC08BD00BFA00EFE1F86
S315000055D030B9074A13889BB243F010031380704713
S315000055E0044A13889BB243F010031380704700BF30
S315000055F0000009400000064038B9084A13889BB2EB
S3150000560023F010039BB213807047054A13889BB2A0
S3150000561023F010039BB21380704700BF00000940BF
S315000056200000064030B9074A138E9BB243F480430C
S3150000563013867047044A138E9BB243F48043138645
S31500005640704700BF000009400000064038B9084A0C
S31500005650138E9BB223F480439BB213867047054A90
S31500005660138E9BB223F480439BB21386704700BF10
S31500005670000009400000064028B9064B4BF6FF72B1
S31500005680A3F840207047044B4BF6FF72A3F8402066
S31500005690704700BF000009400000064028B9064BCD
S315000056A04FF6F772A3F840207047044B4FF6F77297
S315000056B0A3F84020704700BF0000094000000640E4
S315000056C040B9094AB2F860309BB243F00403A2F82D
S315000056D060307047054AB2F860309BB243F004036D
S315000056E0A2F86030704700BF000009400000064085
S315000056F0F0B9104A13889BB243F4806313800D4BB4
S315000057001B8813F4806FFAD00A4B1A8892B222F0E3
S31500005710200292B21A801A8892B242F001021A80CE
S315000057204FF480621A841A859A854FF41D421A86B0
S31500005730704700BF00000940D0B91B4AB2F860307C
S315000057409BB223F003039BB2A2F8603039B9B2F8DA
S3150000575060309BB243F00103A2F860307047124AF2
S31500005760B2F860309BB243F00203A2F86030704793
S315000057700E4AB2F860309BB223F003039BB2A2F844
S31500005780603039B9B2F860309BB243F00103A2F839
S3150000579060307047054AB2F860309BB243F00203AE
S315000057A0A2F86030704700BF0000094000000640C4
S315000057B0944602780E4B33F812309BB2022B01D07E
S315000057C0002070470B4B1B88012B0ED000B58FB005
S315000057D08DF82020084B01221A806A46604600F0A8
S315000057E02DFA00200FB05DF804FBD520704700BFEE
S315000057F0D016FE1F9012FE1FBC12FE1F10B598B0E9
S315000058000446104623788DF824301D4A32F81330AA
S315000058109BB2022B02D0002018B010BD59B1194B13
S315000058201B88012B29D0184B01221A8001AA00F0EF
